:1000000016EF00F0EF5210E0EACF18F0E9CF17F04A
:10001000EF509EA8FED7AD6E18C0EAFF17C0E9FFEB
:10002000E92AD8B4EA2AEED73AEF00F0F86AD09E6F
:10003000EA6AE96AB896190EAF6EE60EAC6ED00E9B
:10004000AB6EC150C00B0F09C16E070EB46E046ACF
:10005000056A1690EA6A060EE96EE9069EAAFED7C0
:10006000AECFECFF0D0EEF5CF9E1EC6AEA6A060E2A
:06007000E96EC8D7030091
:020000040030CA
:0E0000003FCF3E1E0087A1000FC00FE00F4053
:00000001FF
;PIC18F4550
;CRC=4FC8  CREATED="09-abr-17 12:01"
